{
  "contractName": "EnergyTrading",
  "abi": [
    {
      "anonymous": false,
      "inputs": [
        {
          "indexed": false,
          "internalType": "uint256",
          "name": "id",
          "type": "uint256"
        },
        {
          "indexed": false,
          "internalType": "address",
          "name": "seller",
          "type": "address"
        },
        {
          "indexed": false,
          "internalType": "uint256",
          "name": "amount",
          "type": "uint256"
        },
        {
          "indexed": false,
          "internalType": "uint256",
          "name": "price",
          "type": "uint256"
        }
      ],
      "name": "EnergyListed",
      "type": "event"
    },
    {
      "anonymous": false,
      "inputs": [
        {
          "indexed": false,
          "internalType": "uint256",
          "name": "id",
          "type": "uint256"
        },
        {
          "indexed": false,
          "internalType": "address",
          "name": "buyer",
          "type": "address"
        }
      ],
      "name": "EnergyPurchased",
      "type": "event"
    },
    {
      "inputs": [
        {
          "internalType": "uint256",
          "name": "",
          "type": "uint256"
        }
      ],
      "name": "energies",
      "outputs": [
        {
          "internalType": "uint256",
          "name": "id",
          "type": "uint256"
        },
        {
          "internalType": "address",
          "name": "seller",
          "type": "address"
        },
        {
          "internalType": "uint256",
          "name": "amount",
          "type": "uint256"
        },
        {
          "internalType": "uint256",
          "name": "price",
          "type": "uint256"
        },
        {
          "internalType": "bool",
          "name": "sold",
          "type": "bool"
        },
        {
          "internalType": "address",
          "name": "buyer",
          "type": "address"
        }
      ],
      "stateMutability": "view",
      "type": "function",
      "constant": true
    },
    {
      "inputs": [],
      "name": "nextId",
      "outputs": [
        {
          "internalType": "uint256",
          "name": "",
          "type": "uint256"
        }
      ],
      "stateMutability": "view",
      "type": "function",
      "constant": true
    },
    {
      "inputs": [
        {
          "internalType": "uint256",
          "name": "amount",
          "type": "uint256"
        },
        {
          "internalType": "uint256",
          "name": "price",
          "type": "uint256"
        }
      ],
      "name": "listEnergy",
      "outputs": [],
      "stateMutability": "nonpayable",
      "type": "function"
    },
    {
      "inputs": [
        {
          "internalType": "uint256",
          "name": "id",
          "type": "uint256"
        }
      ],
      "name": "purchaseEnergy",
      "outputs": [],
      "stateMutability": "payable",
      "type": "function",
      "payable": true
    },
    {
      "inputs": [
        {
          "internalType": "uint256",
          "name": "id",
          "type": "uint256"
        }
      ],
      "name": "getEnergy",
      "outputs": [
        {
          "components": [
            {
              "internalType": "uint256",
              "name": "id",
              "type": "uint256"
            },
            {
              "internalType": "address",
              "name": "seller",
              "type": "address"
            },
            {
              "internalType": "uint256",
              "name": "amount",
              "type": "uint256"
            },
            {
              "internalType": "uint256",
              "name": "price",
              "type": "uint256"
            },
            {
              "internalType": "bool",
              "name": "sold",
              "type": "bool"
            },
            {
              "internalType": "address",
              "name": "buyer",
              "type": "address"
            }
          ],
          "internalType": "struct EnergyTrading.Energy",
          "name": "",
          "type": "tuple"
        }
      ],
      "stateMutability": "view",
      "type": "function",
      "constant": true
    },
    {
      "inputs": [],
      "name": "withdraw",
      "outputs": [],
      "stateMutability": "nonpayable",
      "type": "function"
    }
  ],
  "bytecode": "0x608060405234801561001057600080fd5b50610e46806100206000396000f3fe6080604052600436106100555760003560e01c80633ccfd60b1461005a57806361588a4e1461007157806361b8ce8c146100b35780636afe2520146100de5780637e0358a6146100fa578063c8a9fb5e14610137575b600080fd5b34801561006657600080fd5b5061006f610160565b005b34801561007d57600080fd5b506100986004803603810190610093919061086f565b610217565b6040516100aa96959493929190610cbc565b60405180910390f35b3480156100bf57600080fd5b506100c86102a0565b6040516100d59190610c33565b60405180910390f35b6100f860048036038101906100f3919061086f565b6102a6565b005b34801561010657600080fd5b50610121600480360381019061011c919061086f565b6104c2565b60405161012e9190610c18565b60405180910390f35b34801561014357600080fd5b5061015e60048036038101906101599190610898565b6105d3565b005b3073ffffffffffffffffffffffffffffffffffffffff163373ffffffffffffffffffffffffffffffffffffffff16146101ce576040517f08c379a00000000000000000000000000000000000000000000000000000000081526004016101c590610b58565b60405180910390fd5b3373ffffffffffffffffffffffffffffffffffffffff166108fc479081150290604051600060405180830381858888f19350505050158015610214573d6000803e3d6000fd5b50565b60006020528060005260406000206000915090508060000154908060010160009054906101000a900473ffffffffffffffffffffffffffffffffffffffff16908060020154908060030154908060040160009054906101000a900460ff16908060040160019054906101000a900473ffffffffffffffffffffffffffffffffffffffff16905086565b60015481565b600080600083815260200190815260200160002090508060040160009054906101000a900460ff161561030e576040517f08c379a000000000000000000000000000000000000000000000000000000000815260040161030590610bb8565b60405180910390fd5b80600301543414610354576040517f08c379a000000000000000000000000000000000000000000000000000000000815260040161034b90610b98565b60405180910390fd5b60018160040160006101000a81548160ff021916908315150217905550338160040160016101000a81548173ffffffffffffffffffffffffffffffffffffffff021916908373ffffffffffffffffffffffffffffffffffffffff16021790555060008160010160009054906101000a900473ffffffffffffffffffffffffffffffffffffffff1673ffffffffffffffffffffffffffffffffffffffff16346040516103fe90610b43565b60006040518083038185875af1925050503d806000811461043b576040519150601f19603f3d011682016040523d82523d6000602084013e610440565b606091505b5050905080610484576040517f08c379a000000000000000000000000000000000000000000000000000000000815260040161047b90610bd8565b60405180910390fd5b7fc3fed0fd7988126357ed3e92abd50623b7e1792521cb604e436a22baee3903a383336040516104b5929190610c4e565b60405180910390a1505050565b6104ca6107f6565b6000808381526020019081526020016000206040518060c0016040529081600082015481526020016001820160009054906101000a900473ffffffffffffffffffffffffffffffffffffffff1673ffffffffffffffffffffffffffffffffffffffff1673ffffffffffffffffffffffffffffffffffffffff16815260200160028201548152602001600382015481526020016004820160009054906101000a900460ff161515151581526020016004820160019054906101000a900473ffffffffffffffffffffffffffffffffffffffff1673ffffffffffffffffffffffffffffffffffffffff1673ffffffffffffffffffffffffffffffffffffffff16815250509050919050565b60008211610616576040517f08c379a000000000000000000000000000000000000000000000000000000000815260040161060d90610b78565b60405180910390fd5b60008111610659576040517f08c379a000000000000000000000000000000000000000000000000000000000815260040161065090610bf8565b60405180910390fd5b6040518060c0016040528060015481526020013373ffffffffffffffffffffffffffffffffffffffff168152602001838152602001828152602001600015158152602001600073ffffffffffffffffffffffffffffffffffffffff1681525060008060015481526020019081526020016000206000820151816000015560208201518160010160006101000a81548173ffffffffffffffffffffffffffffffffffffffff021916908373ffffffffffffffffffffffffffffffffffffffff160217905550604082015181600201556060820151816003015560808201518160040160006101000a81548160ff02191690831515021790555060a08201518160040160016101000a81548173ffffffffffffffffffffffffffffffffffffffff021916908373ffffffffffffffffffffffffffffffffffffffff1602179055509050507fdce237255d5bd98b57c816861c3b76c8e47e10382084f482135e29cb83a534be6001543384846040516107d29493929190610c77565b60405180910390a1600160008154809291906107ed90610d81565b91905055505050565b6040518060c0016040528060008152602001600073ffffffffffffffffffffffffffffffffffffffff1681526020016000815260200160008152602001600015158152602001600073ffffffffffffffffffffffffffffffffffffffff1681525090565b60008135905061086981610df9565b92915050565b60006020828403121561088157600080fd5b600061088f8482850161085a565b91505092915050565b600080604083850312156108ab57600080fd5b60006108b98582860161085a565b92505060206108ca8582860161085a565b9150509250929050565b6108dd81610d39565b82525050565b6108ec81610d39565b82525050565b6108fb81610d4b565b82525050565b61090a81610d4b565b82525050565b600061091d601a83610d28565b91507f4e6f7420617574686f72697a656420746f2077697468647261770000000000006000830152602082019050919050565b600061095d601d83610d28565b91507f416d6f756e74206d7573742062652067726561746572207468616e20300000006000830152602082019050919050565b600061099d601483610d28565b91507f496e636f72726563742076616c75652073656e740000000000000000000000006000830152602082019050919050565b60006109dd601383610d28565b91507f456e6572677920616c726561647920736f6c64000000000000000000000000006000830152602082019050919050565b6000610a1d600e83610d28565b91507f5061796d656e74206661696c65640000000000000000000000000000000000006000830152602082019050919050565b6000610a5d600083610d1d565b9150600082019050919050565b6000610a77601c83610d28565b91507f5072696365206d7573742062652067726561746572207468616e2030000000006000830152602082019050919050565b60c082016000820151610ac06000850182610b25565b506020820151610ad360208501826108d4565b506040820151610ae66040850182610b25565b506060820151610af96060850182610b25565b506080820151610b0c60808501826108f2565b5060a0820151610b1f60a08501826108d4565b50505050565b610b2e81610d77565b82525050565b610b3d81610d77565b82525050565b6000610b4e82610a50565b9150819050919050565b60006020820190508181036000830152610b7181610910565b9050919050565b60006020820190508181036000830152610b9181610950565b9050919050565b60006020820190508181036000830152610bb181610990565b9050919050565b60006020820190508181036000830152610bd1816109d0565b9050919050565b60006020820190508181036000830152610bf181610a10565b9050919050565b60006020820190508181036000830152610c1181610a6a565b9050919050565b600060c082019050610c2d6000830184610aaa565b92915050565b6000602082019050610c486000830184610b34565b92915050565b6000604082019050610c636000830185610b34565b610c7060208301846108e3565b9392505050565b6000608082019050610c8c6000830187610b34565b610c9960208301866108e3565b610ca66040830185610b34565b610cb36060830184610b34565b95945050505050565b600060c082019050610cd16000830189610b34565b610cde60208301886108e3565b610ceb6040830187610b34565b610cf86060830186610b34565b610d056080830185610901565b610d1260a08301846108e3565b979650505050505050565b600081905092915050565b600082825260208201905092915050565b6000610d4482610d57565b9050919050565b60008115159050919050565b600073ffffffffffffffffffffffffffffffffffffffff82169050919050565b6000819050919050565b6000610d8c82610d77565b91507fffffffffffffffffffffffffffffffffffffffffffffffffffffffffffffffff821415610dbf57610dbe610dca565b5b600182019050919050565b7f4e487b7100000000000000000000000000000000000000000000000000000000600052601160045260246000fd5b610e0281610d77565b8114610e0d57600080fd5b5056fea2646970667358221220d83bb4545e5b77590648e31bc331176767dae72de0d54b96cf0bcdedbbafd24b64736f6c63430008000033",
  "immutableReferences": {},
  "source": "// SPDX-License-Identifier: MIT\r\npragma solidity ^0.8.0;\r\n\r\ncontract EnergyTrading {\r\n    // Structure to store energy listing details\r\n    struct Energy {\r\n        uint256 id;\r\n        address seller;\r\n        uint256 amount; // in kWh\r\n        uint256 price;  // in Wei\r\n        bool sold;\r\n        address buyer;  // Track buyer address after purchase\r\n    }\r\n\r\n    // Mapping to store energy listings by their unique id\r\n    mapping(uint256 => Energy) public energies;\r\n\r\n    // Variable to track the next energy listing id\r\n    uint256 public nextId;\r\n\r\n    // Event emitted when energy is listed for sale\r\n    event EnergyListed(uint256 id, address seller, uint256 amount, uint256 price);\r\n\r\n    // Event emitted when energy is purchased\r\n    event EnergyPurchased(uint256 id, address buyer);\r\n\r\n    // Function to list energy for sale\r\n    function listEnergy(uint256 amount, uint256 price) external {\r\n        require(amount > 0, \"Amount must be greater than 0\");\r\n        require(price > 0, \"Price must be greater than 0\");\r\n\r\n        // Store the new energy listing\r\n        energies[nextId] = Energy({\r\n            id: nextId,\r\n            seller: msg.sender,\r\n            amount: amount,\r\n            price: price,\r\n            sold: false,\r\n            buyer: address(0) // No buyer initially\r\n        });\r\n\r\n        // Emit the EnergyListed event\r\n        emit EnergyListed(nextId, msg.sender, amount, price);\r\n\r\n        // Increment the nextId for the next energy listing\r\n        nextId++;\r\n    }\r\n\r\n    // Function to purchase energy\r\n    function purchaseEnergy(uint256 id) external payable {\r\n        Energy storage energy = energies[id];\r\n\r\n        // Ensure the energy is available and not already sold\r\n        require(!energy.sold, \"Energy already sold\");\r\n        require(msg.value == energy.price, \"Incorrect value sent\");\r\n\r\n        // Mark the energy as sold\r\n        energy.sold = true;\r\n        energy.buyer = msg.sender; // Store the buyer's address\r\n\r\n        // Transfer the value to the seller\r\n        (bool success, ) = energy.seller.call{value: msg.value}(\"\");\r\n        require(success, \"Payment failed\");\r\n\r\n        // Emit the EnergyPurchased event\r\n        emit EnergyPurchased(id, msg.sender);\r\n    }\r\n\r\n    // Function to get the details of a specific energy listing\r\n    function getEnergy(uint256 id) external view returns (Energy memory) {\r\n        return energies[id];\r\n    }\r\n\r\n    // Optional: Withdraw contract balance (for the owner to withdraw funds if needed)\r\n    function withdraw() external {\r\n        // Ensure only the contract owner can withdraw funds\r\n        // Here we assume the owner is the account that deployed the contract\r\n        require(msg.sender == address(this), \"Not authorized to withdraw\");\r\n\r\n        // Transfer balance to the owner\r\n        payable(msg.sender).transfer(address(this).balance);\r\n    }\r\n}\r\n",
  "sourcePath": "C:\\Users\\masso\\Downloads\\New folder\\energy-trading\\contracts\\EnergyTrading.sol",
  "compiler": {
    "name": "solc",
    "version": "0.8.0+commit.c7dfd78e.Emscripten.clang"
  },
  "schemaVersion": "3.4.16",
  "updatedAt": "2024-12-20T22:22:01.167Z",
  "networkType": "ethereum",
  "devdoc": {
    "kind": "dev",
    "methods": {},
    "version": 1
  },
  "userdoc": {
    "kind": "user",
    "methods": {},
    "version": 1
  }
}